:020000040000FA
:1000000000009B2C0730831203139F0002308316DD
:10001000031386008312031386018316031306124B
:1000200083120313061276275F2726276430FF000A
:100030000030A2266B270230E22607308312031716
:10004000A1005330A0008030A2002008FE0021084B
:10005000FF002208C4266B27831203138C1E2B2853
:10006000181D3528583045272B28831203131A08EA
:1000700083120317A00083120317C701831203170B
:1000800020083F3A03194D282008493A03195C28F3
:100090002008503A03198E2A8B2C0730831203173D
:1000A000A1003630A0008030A2002008FE00210808
:1000B000FF002208C4262B287C2683120317A000E9
:1000C00083120317470803196828583045272B283F
:1000D000831203172008533A031D90280830A1000B
:1000E000FF26031083120317210DA200C6258312D9
:1000F0000317A2001627831203172208031D822864
:10010000210845270230FF000030A2268312031782
:10011000A10A78302102031C7028FF3045272B28C4
:10012000831203172008463A031D54297C268312A4
:100130000317A1007C2683120317A2007C268312DA
:100140000317A3007C2683120317A400831203174E
:1001500047080319AE28583045272B288312031768
:100160002308A700A500A6012408A300A500A60156
:100170002708A40083120313061683120317A50190
:10018000FF26FE30831203172205A600C625831220
:100190000317A60026080319CF280130A5008312F3
:1001A00003172508031DE22802302102031CE22860
:1001B0000030C62583120317A10021080319E22885
:1001C0000130A500831203172508031DF128003014
:1001D000C62583120317A10021080319F128013055
:1001E000A5008312031725080319FD28162783127B
:1001F00003130612583045272B28FF2683120317B6
:1002000022142208C62583120317A100210803190E
:1002100010291627831203130612583045272B285E
:1002200083120317A101A2018312031724082202DB
:10023000031D1C292308210203184D2983120317CB
:100240002308A5002408A600FF30A507031CA60369
:100250002108A7002208A80026082802031D322929
:100260002508270203183A29013083120317A50035
:10027000A6013E2983120317A501A60183120317C5
:100280002508A700802583120317A50045278312A0
:100290000317A10A0319A20A1429162783120313AC
:1002A0000612553045272B287C2683120317A10000
:1002B0007C2683120317A2007C2683120317A30057
:1002C0007C2683120317A4007C2683120317A50043
:1002D0007C2683120317A60083120317470803190D
:1002E0007429583045272B28831203172508A900A5
:1002F000A700A8012608A500A700A8012908A600B4
:100300002008523A031D1D2AA70183120313061663
:10031000FF26FE30831203172205A800C62583128C
:100320000317A8002808031997290130A700831292
:1003300003172708031DAA2902302102031CAA293A
:100340002308C62583120317A80028080319AA2921
:100350000130A700831203172708031DB9292408B9
:10036000C62583120317A80028080319B9290130EC
:10037000A7008312031727080319C529162783121C
:1003800003130612583045272B28FF26013083120D
:1003900003172204A700C62583120317A700270806
:1003A0000319D9291627831203130612583045273B
:1003B0002B2883120317A701A8018312031726080D
:1003C0002802031DE529250827020318162A83128F
:1003D00003172508A9002608AA00FF30A907031C57
:1003E000AA032708AB002808AC002A082C02031D2A
:1003F000FB2929082B020318032A01308312031753
:10040000A900AA01072A83120317A901AA018312CE
:1004100003172908AB00802583120317A90045277D
:1004200083120317A70A0319A80ADD2916278312C6
:1004300003130612553045272B2883120317200873
:10044000573A031D8B2AA001FF268312031722109F
:100450002208C62583120317A20022080319322A94
:100460000130A000831203172008031D452A023023
:100470002102031C452A2308C62583120317A10065
:1004800021080319452A0130A00083120317200810
:10049000031D542A2408C62583120317A10021082E
:1004A0000319542A0130A00083120317A101A201ED
:1004B0008312031726082202031D602A2508210241
:1004C0000318792A7C2683120317A3002008031D32
:1004D000732A2308C62583120317A30023080319D0
:1004E000732A0130A00083120317A10A0319A20A7C
:1004F000582A1627831203172008031D882A0A305A
:10050000FF000030A2260130E2264B3045272B2881
:10051000583045272B28583045272B287C26831216
:100520000317A00083120317470803199A2A5830AB
:1005300045272B288312031720084A3A031DBF2A98
:100540008E278312031305118E279F300826FF3054
:10055000082683120317A1004527FF3008268312BF
:100560000317A1004527FF30082683120317A100B7
:1005700045278E278312031305158E272B288312F8
:1005800003172008533A031DD82A8E27831203131A
:1005900005118E2705300826FF3008268312031721
:1005A000A10045278E278312031305158E272B28BC
:1005B000831203172008453A031D062B8E2783124A
:1005C000031305118E27063008268E278312031386
:1005D00005158E278E278E278312031305118E276C
:1005E000C73008268E278312031305158E2737255B
:1005F00083120317A10021080319032B0330E226FD
:100600004B3045272B28583045272B2883120317BA
:100610002008463A031DB22B8E27831203130511BF
:100620008E279F300826FF30082683120317A1006B
:10063000FF300826FF30082683120317A2008E27FA
:100640008312031305158E27831203172108FF3A1F
:100650000319352B21080319352B10302202031CF6
:10066000352B1D302202031C382B583045272B28F0
:10067000003083120317A5000030A400A30001304E
:10068000A1002208003C03194E2B83120317A10D71
:10069000A30DA40DA50D013E031C452B83120313CE
:1006A000061683120317A201A601A701A80183124F
:1006B000031725082802031D672B24082702031DA2
:1006C000672B23082602031D672B2108220203182B
:1006D000AC2B8E278312031305118E2703300826B7
:1006E000831203172808AA00AB01AC012708A90050
:1006F0000826831203172208A9002608AA00AB00C7
:10070000AC012B08A9000826831203172208A900B0
:10071000082683120317A901FF3008268312031746
:10072000AB00452783120317A90AFF302902031CD7
:100730008C2BFF30082683120317A90045278E272C
:100740008312031305158E2783120317A60A0319B4
:10075000A70A0319A80A572B831203130612553050
:1007600045272B287C2683120317A1007C268312A1
:100770000317A2007C2683120317A3007C26831292
:100780000317A4007C2683120317A5007C2683127E
:100790000317A6007C2683120317A70083120317F2
:1007A00047080319D62B583045272B2883120317E7
:1007B0002608AB00A800A9012708A600A800A901E7
:1007C0002B08A7002008523A031D2B2C8312031379
:1007D00006168E278312031305118E278312031723
:1007E000220808260330831203172102031CFA2B68
:1007F000230808260230831203172102031C022C4F
:1008000024080826831203172508082683120317D5
:10081000A801A9018312031727082902031D122C1E
:10082000260828020318202CFF30082683120317FD
:10083000AB00452783120317A80A0319A90A0A2C3B
:100840008E278312031305158E27831203130612B6
:10085000553045272B28831203172008573A031DCC
:10086000882C8E278312031305118E270630082645
:100870008E278312031305158E278E278E2783124A
:10088000031305118E27831203172208082603304D
:10089000831203172102031C4F2C23080826023061
:1008A000831203172102031C572C240808268312E5
:1008B00003172508082683120317A001A10183123C
:1008C000031727082102031D672C2608200203189E
:1008D000742C7C2683120317A200082683120317A8
:1008E000A00A0319A10A5F2C8E2783120313051592
:1008F0008E27372583120317A00020080319852CA3
:100900000130E2264B3045272B28583045272B282D
:10091000583045272B28073083120317A100873052
:10092000A0008030A2002008FE002108FF0022085D
:10093000C4262B2808007F30FE000730FF008030DF
:100940000000000048260000000083120313A100ED
:100950007F08A0008130A2000730A3008312031398
:100960002008A4002108A500FF30A007031CA10354
:10097000250824040319332D04302207A400A501FF
:10098000A50D2308A5072408FE002508FF008030D8
:100990000000000048260000000083120313A70097
:1009A0007F08A6002208FE002308FF008030000018
:1009B000000048260000000083120313A900A500D0
:1009C0007F08A400A80002302207A400A501A50DFD
:1009D0002308A5072408FE002508FF00803000003A
:1009E000000048260000000083120313A500AB009E
:1009F0007F08AA00A400831203132608AA00270870
:100A0000AB00FF30A607031CA7032B082A04031919
:100A10002C2D2808FE002908FF008030000000006F
:100A200069260000000083120313AA002408831221
:100A300003138400831383120313251883172A08D2
:100A400083120313800083120313A80A0319A90A4F
:100A5000A40A0319A50AFB2C063083120313A2076C
:100A60000318A30AAE2C000000000228080083121D
:100A70000317C301C4018E278312031305118E27A8
:100A800005300826FF30082683120317C5008E277D
:100A90008312031305158E270130FF000030A226B4
:100AA00083120317451C632DC30A0319C40A4308A4
:100AB000C5004408C60013304602031D612D88306E
:100AC0004502031C3B2D831203174308C50044084D
:100AD000C60013304602031D6F2D883045020318EF
:100AE000772D013083120317C300C4017B2D8312BD
:100AF0000317C301C401831203174308C50008008C
:100B000083120317BF00C001831603130514831259
:100B10000317C101031083120317C00D8E2783161C
:100B2000031385148E2783120313051C9A2D831239
:100B300003174014831603138510831203138510C3
:100B400083120317C10A08304102031C8A2D3F0893
:100B50000319B12D83160313051083120313051017
:100B6000B42D8316031305148E27831603138514DF
:100B70008E278316031385108312031385108316A3
:100B80000313051483120317400808008312031788
:100B9000BD00BE0183120317BD1FD22D83160313A0
:100BA0000514D82D831603130510831203130510A3
:100BB0008E278316031385148E278316031385103F
:100BC000831203138510031083120317BD0DBE0A91
:100BD00008303E02031CCA2D8316031305148E270A
:100BE0008316031385148E2783120317BD01831206
:100BF0000313051CFE2D83120317BD0A831603136E
:100C00008510831203138510831203173D08080013
:100C100083120317B700B601B80183120317B71F79
:100C2000152E0130B900BA01192E83120317B9012C
:100C3000BA01831203173908C200420C0318232E8D
:100C4000831203130513031C282E831203130517A5
:100C5000031083120317B70D8E2783120313851514
:100C60008E27031083120317B60D83120313851EFC
:100C70003C2E83120317361483120313851183123B
:100C80000317B80A08303802031C0D2E3608080076
:100C9000003A0319502E803A03195A2EFF010034EE
:100CA0007E08840083137F1883170008FF00840ADE
:100CB00000080800000000007726FD00FE0FFF037B
:100CC000FF0A000000007726FC007D08FF007C087A
:100CD0000800003A0319702E803A0319772E003469
:100CE0007E08840083137F188317000808007F089C
:100CF0008A007E088200080083120317AE01AF014C
:100D00006B27831203138C1A9B2E01308312031757
:100D10002E07AE00B000B101B10D2F08B1073108A8
:100D2000AF0031083004031D812E013083120317F8
:100D3000C7000030A12E83120317C70183120313CB
:100D40001A08080083120317B7007F08B600B8011D
:100D5000B9018312031737083902031DB12E360873
:100D600038020318C32EFA3083120317BA000000AA
:100D7000000083120317BA033A08031DB72EB80AFE
:100D80000319B90AA92E080083120317B4007F08BB
:100D9000B3007E08B200831203173208FE00330846
:100DA000FF003408692683120317B50035080319BC
:100DB000E12EB20A0319B30A0319B40A350845270C
:100DC000CB2E080083120317BB00BC01831203174C
:100DD0003B083C020318FE2E8312031306169630BE
:100DE000FF000030A2268312031306126430FF00B6
:100DF0000030A22683120317BC0AE62E08008316D1
:100E0000031305148E278316031385148E27831668
:100E1000031305108312031305108E278316031383
:100E200085108312031385108E2708008316031381
:100E300005108312031305108E27831603138514E0
:100E40008E278316031305148E27080083160313B9
:100E50008614061119309900181518129816831265
:100E60000313981718160C128C12080050344934CA
:100E700043344D3445344D342034763433342034C7
:100E80004F344B340D340A34003483120317AD0051
:100E900083160313981C482F831203172D088312FF
:100EA0000313990008005034493443344D34453419
:100EB0004D342034763433340D340A340034831600
:100EC00003130511851105138516831203130515E8
:100ED00085110513080083120313981C712F181233
:100EE000181683120313181D752F0800831203139D
:100EF00005108510831603130514851408000134AA
:100F0000003493340734483401340134003443341A
:100F10004D3444343F340D340A34003400000000B2
:080F200000000000080000348D
:02400E00103F61
:00000001FF
